{
  "_format": "hh-sol-artifact-1",
  "contractName": "CampaignFactory",
  "sourceName": "contracts/Campaign.sol",
  "abi": [
    {
      "anonymous": false,
      "inputs": [
        {
          "indexed": false,
          "internalType": "string",
          "name": "title",
          "type": "string"
        },
        {
          "indexed": false,
          "internalType": "uint256",
          "name": "requiredAmount",
          "type": "uint256"
        },
        {
          "indexed": true,
          "internalType": "address",
          "name": "owner",
          "type": "address"
        },
        {
          "indexed": false,
          "internalType": "address",
          "name": "campaignAddress",
          "type": "address"
        },
        {
          "indexed": false,
          "internalType": "string",
          "name": "imgURI",
          "type": "string"
        },
        {
          "indexed": true,
          "internalType": "uint256",
          "name": "timestamp",
          "type": "uint256"
        },
        {
          "indexed": true,
          "internalType": "string",
          "name": "category",
          "type": "string"
        }
      ],
      "name": "campaignCreated",
      "type": "event"
    },
    {
      "inputs": [
        {
          "internalType": "string",
          "name": "campaignTitle",
          "type": "string"
        },
        {
          "internalType": "uint256",
          "name": "requiredCampaignAmount",
          "type": "uint256"
        },
        {
          "internalType": "string",
          "name": "imgURI",
          "type": "string"
        },
        {
          "internalType": "string",
          "name": "category",
          "type": "string"
        },
        {
          "internalType": "string",
          "name": "descriptionURI",
          "type": "string"
        }
      ],
      "name": "createCampaign",
      "outputs": [],
      "stateMutability": "nonpayable",
      "type": "function"
    },
    {
      "inputs": [
        {
          "internalType": "uint256",
          "name": "",
          "type": "uint256"
        }
      ],
      "name": "deployedCampaigns",
      "outputs": [
        {
          "internalType": "address",
          "name": "",
          "type": "address"
        }
      ],
      "stateMutability": "view",
      "type": "function"
    }
  ],
  "bytecode": "0x608060405234801561001057600080fd5b50611341806100206000396000f3fe60806040523480156200001157600080fd5b50600436106200003a5760003560e01c8063339d50a5146200003f578063c658857d1462000075575b600080fd5b6200005d60048036038101906200005791906200024f565b62000095565b6040516200006c9190620002c6565b60405180910390f35b6200009360048036038101906200008d919062000445565b620000d5565b005b60008181548110620000a657600080fd5b906000526020600020016000915054906101000a900473ffffffffffffffffffffffffffffffffffffffff1681565b600085858584604051620000e990620001f2565b620000f89493929190620005ed565b604051809103906000f08015801562000115573d6000803e3d6000fd5b5090506000819080600181540180825580915050600190039060005260206000200160009091909190916101000a81548173ffffffffffffffffffffffffffffffffffffffff021916908373ffffffffffffffffffffffffffffffffffffffff160217905550826040516200018b919062000691565b6040518091039020423373ffffffffffffffffffffffffffffffffffffffff167ff932d905365211c7f19fda44bcb55b1adbe63365f7cdae1c35ddcb3e38ed1d468989868a604051620001e29493929190620006aa565b60405180910390a4505050505050565b610c06806200070683390190565b6000604051905090565b600080fd5b600080fd5b6000819050919050565b620002298162000214565b81146200023557600080fd5b50565b60008135905062000249816200021e565b92915050565b6000602082840312156200026857620002676200020a565b5b6000620002788482850162000238565b91505092915050565b600073ffffffffffffffffffffffffffffffffffffffff82169050919050565b6000620002ae8262000281565b9050919050565b620002c081620002a1565b82525050565b6000602082019050620002dd6000830184620002b5565b92915050565b600080fd5b600080fd5b6000601f19601f8301169050919050565b7f4e487b7100000000000000000000000000000000000000000000000000000000600052604160045260246000fd5b6200033882620002ed565b810181811067ffffffffffffffff821117156200035a5762000359620002fe565b5b80604052505050565b60006200036f62000200565b90506200037d82826200032d565b919050565b600067ffffffffffffffff821115620003a0576200039f620002fe565b5b620003ab82620002ed565b9050602081019050919050565b82818337600083830152505050565b6000620003de620003d88462000382565b62000363565b905082815260208101848484011115620003fd57620003fc620002e8565b5b6200040a848285620003b8565b509392505050565b600082601f8301126200042a5762000429620002e3565b5b81356200043c848260208601620003c7565b91505092915050565b600080600080600060a086880312156200046457620004636200020a565b5b600086013567ffffffffffffffff8111156200048557620004846200020f565b5b620004938882890162000412565b9550506020620004a68882890162000238565b945050604086013567ffffffffffffffff811115620004ca57620004c96200020f565b5b620004d88882890162000412565b935050606086013567ffffffffffffffff811115620004fc57620004fb6200020f565b5b6200050a8882890162000412565b925050608086013567ffffffffffffffff8111156200052e576200052d6200020f565b5b6200053c8882890162000412565b9150509295509295909350565b600081519050919050565b600082825260208201905092915050565b60005b838110156200058557808201518184015260208101905062000568565b8381111562000595576000848401525b50505050565b6000620005a88262000549565b620005b4818562000554565b9350620005c681856020860162000565565b620005d181620002ed565b840191505092915050565b620005e78162000214565b82525050565b600060808201905081810360008301526200060981876200059b565b90506200061a6020830186620005dc565b81810360408301526200062e81856200059b565b905081810360608301526200064481846200059b565b905095945050505050565b600081905092915050565b6000620006678262000549565b6200067381856200064f565b93506200068581856020860162000565565b80840191505092915050565b60006200069f82846200065a565b915081905092915050565b60006080820190508181036000830152620006c681876200059b565b9050620006d76020830186620005dc565b620006e66040830185620002b5565b8181036060830152620006fa81846200059b565b90509594505050505056fe60806040523480156200001157600080fd5b5060405162000c0638038062000c0683398181016040528101906200003791906200035c565b83600090805190602001906200004f929190620000d4565b508260018190555081600290805190602001906200006f929190620000d4565b50806003908051906020019062000088929190620000d4565b5033600460006101000a81548173ffffffffffffffffffffffffffffffffffffffff021916908373ffffffffffffffffffffffffffffffffffffffff1602179055505050505062000490565b828054620000e2906200045a565b90600052602060002090601f01602090048101928262000106576000855562000152565b82601f106200012157805160ff191683800117855562000152565b8280016001018555821562000152579182015b828111156200015157825182559160200191906001019062000134565b5b50905062000161919062000165565b5090565b5b808211156200018057600081600090555060010162000166565b5090565b6000604051905090565b600080fd5b600080fd5b600080fd5b600080fd5b6000601f19601f8301169050919050565b7f4e487b7100000000000000000000000000000000000000000000000000000000600052604160045260246000fd5b620001ed82620001a2565b810181811067ffffffffffffffff821117156200020f576200020e620001b3565b5b80604052505050565b60006200022462000184565b9050620002328282620001e2565b919050565b600067ffffffffffffffff821115620002555762000254620001b3565b5b6200026082620001a2565b9050602081019050919050565b60005b838110156200028d57808201518184015260208101905062000270565b838111156200029d576000848401525b50505050565b6000620002ba620002b48462000237565b62000218565b905082815260208101848484011115620002d957620002d86200019d565b5b620002e68482856200026d565b509392505050565b600082601f83011262000306576200030562000198565b5b815162000318848260208601620002a3565b91505092915050565b6000819050919050565b620003368162000321565b81146200034257600080fd5b50565b60008151905062000356816200032b565b92915050565b600080600080608085870312156200037957620003786200018e565b5b600085015167ffffffffffffffff8111156200039a576200039962000193565b5b620003a887828801620002ee565b9450506020620003bb8782880162000345565b935050604085015167ffffffffffffffff811115620003df57620003de62000193565b5b620003ed87828801620002ee565b925050606085015167ffffffffffffffff81111562000411576200041062000193565b5b6200041f87828801620002ee565b91505092959194509250565b7f4e487b7100000000000000000000000000000000000000000000000000000000600052602260045260246000fd5b600060028204905060018216806200047357607f821691505b602082108114156200048a57620004896200042b565b5b50919050565b61076680620004a06000396000f3fe6080604052600436106100705760003560e01c80638da5cb5b1161004e5780638da5cb5b146100f65780639632e72014610121578063ed88c68e1461014c578063f3ccaac01461015657610070565b806348b9ef40146100755780634a79d50c146100a05780637284e416146100cb575b600080fd5b34801561008157600080fd5b5061008a610181565b6040516100979190610486565b60405180910390f35b3480156100ac57600080fd5b506100b5610187565b6040516100c2919061053a565b60405180910390f35b3480156100d757600080fd5b506100e0610215565b6040516100ed919061053a565b60405180910390f35b34801561010257600080fd5b5061010b6102a3565b604051610118919061059d565b60405180910390f35b34801561012d57600080fd5b506101366102c9565b6040516101439190610486565b60405180910390f35b6101546102cf565b005b34801561016257600080fd5b5061016b6103df565b604051610178919061053a565b60405180910390f35b60015481565b60008054610194906105e7565b80601f01602080910402602001604051908101604052809291908181526020018280546101c0906105e7565b801561020d5780601f106101e25761010080835404028352916020019161020d565b820191906000526020600020905b8154815290600101906020018083116101f057829003601f168201915b505050505081565b60038054610222906105e7565b80601f016020809104026020016040519081016040528092919081815260200182805461024e906105e7565b801561029b5780601f106102705761010080835404028352916020019161029b565b820191906000526020600020905b81548152906001019060200180831161027e57829003601f168201915b505050505081565b600460009054906101000a900473ffffffffffffffffffffffffffffffffffffffff1681565b60055481565b6005546001541015610316576040517f08c379a000000000000000000000000000000000000000000000000000000000815260040161030d9061068b565b60405180910390fd5b600460009054906101000a900473ffffffffffffffffffffffffffffffffffffffff1673ffffffffffffffffffffffffffffffffffffffff166108fc349081150290604051600060405180830381858888f1935050505015801561037e573d6000803e3d6000fd5b50346005600082825461039191906106da565b9250508190555042343373ffffffffffffffffffffffffffffffffffffffff167fe6add99d06d9ad7fc456e746aa162eed6211c5002ef2dacdd67b8d2016822fba60405160405180910390a4565b600280546103ec906105e7565b80601f0160208091040260200160405190810160405280929190818152602001828054610418906105e7565b80156104655780601f1061043a57610100808354040283529160200191610465565b820191906000526020600020905b81548152906001019060200180831161044857829003601f168201915b505050505081565b6000819050919050565b6104808161046d565b82525050565b600060208201905061049b6000830184610477565b92915050565b600081519050919050565b600082825260208201905092915050565b60005b838110156104db5780820151818401526020810190506104c0565b838111156104ea576000848401525b50505050565b6000601f19601f8301169050919050565b600061050c826104a1565b61051681856104ac565b93506105268185602086016104bd565b61052f816104f0565b840191505092915050565b600060208201905081810360008301526105548184610501565b905092915050565b600073ffffffffffffffffffffffffffffffffffffffff82169050919050565b60006105878261055c565b9050919050565b6105978161057c565b82525050565b60006020820190506105b2600083018461058e565b92915050565b7f4e487b7100000000000000000000000000000000000000000000000000000000600052602260045260246000fd5b600060028204905060018216806105ff57607f821691505b60208210811415610613576106126105b8565b5b50919050565b7f7468652063616d706167696e20646f65736e2774206e6565642066756e64732060008201527f616e796d6f726500000000000000000000000000000000000000000000000000602082015250565b60006106756027836104ac565b915061068082610619565b604082019050919050565b600060208201905081810360008301526106a481610668565b9050919050565b7f4e487b7100000000000000000000000000000000000000000000000000000000600052601160045260246000fd5b60006106e58261046d565b91506106f08361046d565b9250827fffffffffffffffffffffffffffffffffffffffffffffffffffffffffffffffff03821115610725576107246106ab565b5b82820190509291505056fea2646970667358221220b8cb7ffba9d61cb07ec20b003c33c2b6e025bd0ad6238e1a24c41134d372556564736f6c634300080a0033a264697066735822122090626148a11702e5a7d1127cf5eff33297c9bc37e081855e34dd8df2f303971a64736f6c634300080a0033",
  "linkReferences": {},
  "deployedLinkReferences": {}
}